:020000040800F2
:1000000000500020151D0008B11C0008B31C00089A
:10001000B51C0008B71C0008B91C0008000000004F
:10002000000000000000000000000000BB1C0008F1
:10003000BD1C000800000000BF1C0008C11C000817
:100040005D1D00085D1D00085D1D00085D1D0008A8
:100050005D1D00085D1D00085D1D00085D1D000898
:100060005D1D00085D1D00085D1D00085D1D000888
:100070005D1D00085D1D00085D1D00085D1D000878
:100080005D1D00085D1D00085D1D00085D1D000868
:100090005D1D00085D1D00085D1D00085D1D000858
:1000A0005D1D00085D1D00085D1D00085D1D000848
:1000B0005D1D00085D1D00085D1D00085D1D000838
:1000C0005D1D00085D1D00085D1D00085D1D000828
:1000D0005D1D00085D1D0008591A00085D1D00081F
:1000E0005D1D00085D1D00085D1D0008000000008A
:1000F0000000000000000000000000000000000000
:0C01000000000000000000005FF808F1A3
:10010C0010B5054C237833B9044B13B10448AFF345
:10011C0000800123237010BD0C00002000000000A3
:10012C00A81D000808B5034B1BB103490348AFF3E6
:10013C00008008BD0000000010000020A81D000871
:10014C0010B504460E4B18784FF47A73B3FBF0F3EA
:10015C000C4A1068B0FBF3F000F0D6F968B90F2C1C
:10016C0001D901200AE0002221464FF0FF3000F0B7
:10017C008BF9034B5C60002000E0012010BD00BF38
:10018C00000000200800002008B5074A136843F05F
:10019C0010031360032000F065F90020FFF7D0FF77
:1001AC0001F06CFC002008BD00200240034A1168DD
:1001BC00034B1B780B441360704700BF2C000020CE
:1001CC0000000020014B1868704700BF2C00002075
:1001DC0030B482B00023019390F82430012B00F04E
:1001EC008B800246012380F824304B68062B29D8DB
:1001FC000568686B03EB8303053B1F249C4020EAD6
:10020C0004000C6804FA03F303436B630B68092BBB
:10021C0038D91568E86803EB43031E3B07249C4060
:10022C0020EA04008C6804FA03F30343EB600B68C8
:10023C00103B012B34D90020002382F8243002B06B
:10024C0030BC70470C2B0ED80568286B03EB83036E
:10025C00233B1F249C4020EA04000C6804FA03F39F
:10026C0003432B63D2E70568E86A03EB8303413B46
:10027C001F249C4020EA04000C6804FA03F3034397
:10028C00EB62C3E71568286903EB430307249C4022
:10029C0020EA04008C6804FA03F303432B61C6E7DD
:1002AC0013681648834205D0936A43F02003936287
:1002BC000120C1E7986810F4000F1BD1986840F436
:1002CC00000098600B68102B01D00020B4E70C4B99
:1002DC001B680C49A1FB03139B0C03EB8303590014
:1002EC00019102E0019B013B0193019B002BF9D191
:1002FC000020A1E700209FE70220A0E70024014096
:10030C000800002083DE1B4338B503689A6812F09E
:10031C00010F01D1002038BD04469A6822F0010279
:10032C009A60FFF74FFF054623689B6813F0010F97
:10033C000ED0FFF747FF401B0228F5D9A36A43F004
:10034C001003A362E36A43F00103E3620120E2E7D6
:10035C000020E0E700287FD038B50446836A002BE4
:10036C0033D02046FFF7D0FFA36A13F010036DD1F2
:10037C0000286BD1A26A22F4885222F0020242F0C9
:10038C000202A2626268E1690A43E56842EA450238
:10039C00A168B1F5807F21D001291CD061690129A8
:1003AC001FD02568696821F469410B436B60216893
:1003BC008D682A4B2B4013438B60A368B3F5807F69
:1003CC0020D0012B1ED000211FE0C36280F8243006
:1003DC0001F07AFBC5E74FF48073DFE74FF48073CD
:1003EC00DCE735B9A169013943EA413343F40063D1
:1003FC00D7E7A16A41F02001A162E16A41F0010155
:10040C00E162CEE72369013B19052568EB6A23F409
:10041C0070030B43EB6223689968114B0B409A42B3
:10042C000BD0A36A23F0120343F01003A362E36A18
:10043C0043F00103E36201200DE00023E362A36AB1
:10044C0023F0030343F00103A36204E0A36A43F027
:10045C001003A362012038BD01207047FDF7E1FFB6
:10046C00FE0E1FFF074AD36823F4E0631B041B0C2A
:10047C00000200F4E060184340F0BF6040F400302C
:10048C00D060704700ED00E030B4174BDB68C3F36D
:10049C000223C3F10704042C28BF04241D1D062DC0
:1004AC0018D9033B4FF0FF3505FA04F421EA040197
:1004BC00994005FA03F322EA0303194300280BDBE6
:1004CC000901C9B200F1604000F5614080F80013E9
:1004DC0030BC70470023E5E700F00F000901C9B2FA
:1004EC00024B1954F4E700BF00ED00E014ED00E0FE
:1004FC0000F01F02400901239340024A42F82030C9
:10050C00704700BF00E100E00138B0F1807F0AD2F3
:10051C00064B5860064AF02182F8231000209860A0
:10052C0007221A6070470120704700BF10E000E0FE
:10053C0000ED00E008B590F82130022B03D0042325
:10054C008363012008BD0268136823F00E03136057
:10055C000268136823F0010313600368194A93427D
:10056C0014D0143293421FD0143293421ED0143242
:10057C0093421ED0143293421ED01432934202D0B6
:10058C004FF0807203E04FF4801200E001220E4B1A
:10059C005A60012380F82130002380F82030436B0F
:1005AC006BB198470020CDE71022F0E74FF4807232
:1005BC00EDE74FF48052EAE74FF48032E7E7002092
:1005CC00C0E700BF0800024000000240F0B482B057
:1005DC0000263546A1E0002C59D0012C00D1CE6864
:1005EC00FF2B68D88446FF2B68D8AC00DCF80020C1
:1005FC000F27A74022EA070206FA04F42243CCF89C
:10060C0000204A6812F0805F00F086805E4A946990
:10061C0044F001049461926902F001020192019A82
:10062C00AC08A71C594A52F8272005F00307BF0055
:10063C004FF00F0C0CFA07FC22EA0C0C544A9042B7
:10064C0042D002F5806290427FD002F580629042E7
:10065C007DD002F58062904234D0042235E04D4FBB
:10066C00BC4214D00BD94C4FBC4210D007F580378C
:10067C00BC420CD0A7F58017BC42B1D107E0A7F55E
:10068C008017BC4203D007F58037BC42A8D18C68D8
:10069C007CB1012C08D042610826A1E7CE6808364F
:1006AC009EE7CE680C369BE70261082698E7002689
:1006BC0096E7042694E700F1040C94E7A5F10804EE
:1006CC00A40093E7032200E00022BA4042EA0C02A5
:1006DC0002342E4F47F824204A6812F4803F38D059
:1006EC002E4C22681A4322604A6812F4003F36D01E
:1006FC002A4C62681A4362604A6812F4801F34D034
:10070C00264CA2681A43A2604A6812F4001F32D029
:10071C00224CE2681343E36001350F2D31D80122DE
:10072C00AA400B6813409A42F6D14C68122CB8D0F0
:10073C0095D8022CB2D07FF64EAF032CB7D0112C2B
:10074C007FF44EAFCE6804364AE70122BDE70222A1
:10075C00BBE7124C226822EA03022260C4E70F4C6A
:10076C00626822EA03026260C6E70C4CA26822EAC5
:10077C000302A260C8E7094CE26822EA0303E360C3
:10078C00CAE702B0F0BC7047001002400000014004
:10079C00000801400000211000003110000401404D
:1007AC0082B0084B1B68084AA2FB03235B0A00FBC0
:1007BC0003F0019000BF019B5A1E0192002BF9D14E
:1007CC0002B0704708000020D34D621070B582B0A3
:1007DC000446036813F0010F2CD0AB4B5B6803F09D
:1007EC000C03042B1DD0A84B5B6803F00C03082BE7
:1007FC0012D06368B3F5803F41D0002B55D103F183
:10080C00804303F504331A6822F480321A601A68A4
:10081C0022F480221A6037E09B4B5B6813F4803F14
:10082C00E7D0994B1B6813F4003F03D06368002B8F
:10083C0000F0AE81236813F0020F76D0924B5B6808
:10084C0013F00C0F5FD0904B5B6803F00C03082B7C
:10085C0054D02369002B00F08A808C4B01221A6043
:10086C00FFF7B0FC0546884B1B6813F0020F75D1DF
:10087C00FFF7A8FC401B0228F5D903208BE1824A24
:10088C00136843F480331360636843B3FFF79AFC37
:10089C0005467D4B1B6813F4003FCBD1FFF792FC50
:1008AC00401B6428F5D9032075E1B3F5A02F09D0BE
:1008BC00754B1A6822F480321A601A6822F480226E
:1008CC001A60E1E703F18043A3F53C331A6842F464
:1008DC0080221A601A6842F480321A60D4E7FFF75B
:1008EC0071FC0546684B1B6813F4003FA2D0FFF760
:1008FC0069FC401B6428F5D903204CE1624B5B6812
:10090C0013F4803FA5D1604B1B6813F0020F04D089
:10091C002369012B01D001203DE15B4A136823F0D0
:10092C00F803616943EAC1031360236813F0080FED
:10093C0032D0A369002B5BD0554B01221A60FFF714
:10094C0041FC0546504B5B6A13F0020F21D1FFF7B7
:10095C0039FC401B0228F5D903201CE14A4A1368D4
:10096C0023F0F803616943EAC1031360DDE7474BE9
:10097C0000221A60FFF726FC0546434B1B6813F058
:10098C00020FD2D0FFF71EFC401B0228F5D9032022
:10099C0001E10120FFF704FF236813F0040F00F0BE
:1009AC009780394BDB6913F0805F33D1364BDA69B2
:1009BC0042F08052DA61DB6903F080530193019BB2
:1009CC000125344B1B6813F4807F25D0E368012B81
:1009DC0036D0002B4CD103F1804303F504331A6A53
:1009EC0022F001021A621A6A22F004021A622CE046
:1009FC00274B00221A60FFF7E5FB0546224B5B6A8A
:100A0C0013F0020FC8D0FFF7DDFB401B0228F5D90D
:100A1C000320C0E00025D4E71E4A136843F480731A
:100A2C001360FFF7CFFB06461A4B1B6813F4807F4D
:100A3C00CCD1FFF7C7FB801B6428F5D90320AAE0B3
:100A4C00114A136A43F001031362E36873B3FFF7AF
:100A5C00B9FB06460C4B1B6A13F0020F37D1FFF79C
:100A6C00B1FB801B41F288339842F3D9032092E00A
:100A7C00052B11D0044B1A6A22F001021A621A6A71
:100A8C0022F004021A62E0E7001002400000424229
:100A9C008004424200700040414B1A6A42F004024A
:100AAC001A621A6A42F001021A62CEE7FFF78AFB59
:100ABC0006463B4B1B6A13F0020F08D0FFF782FB74
:100ACC00801B41F288339842F3D9032063E0E5B9E7
:100ADC00E369002B5ED0324A526802F00C02082AFD
:100AEC005BD0022B17D02F4B00221A60FFF76AFB4A
:100AFC0004462B4B1B6813F0007F47D0FFF762FBBB
:100B0C00001B0228F5D9032045E0254AD36923F0C0
:100B1C008053D361DCE7234B00221A60FFF752FBB2
:100B2C0005461F4B1B6813F0007F06D0FFF74AFBEE
:100B3C00401B0228F5D903202DE0236AB3F5803F32
:100B4C001AD017494B6823F47413226A606A024363
:100B5C0013434B60134B01221A60FFF733FB04461F
:100B6C000F4B1B6813F0007F0ED1FFF72BFB001B04
:100B7C000228F5D903200EE0094A536823F4003308
:100B8C00A1680B435360DCE7002004E0002002E086
:100B9C00012000E0002002B070BD0120FBE700BF87
:100BAC00001002406000424210B487B0164C94E82A
:100BBC000F000DF1180C0CE90F00238AADF804306E
:100BCC00124B5B6803F00C02082A1AD1C3F3834260
:100BDC00624412F8102C13F4803F05D10C4800FB32
:100BEC0002F007B010BC7047084B5B68C3F340437E
:100BFC00634413F8143C074800FB02F0B0FBF3F01D
:100C0C00EFE70448EDE700BFC01D000800100240EC
:100C1C0000093D0000127A00624B1B6803F00703C9
:100C2C008B420CD25F4A136823F007030B4313600B
:100C3C00136803F007038B4201D00120704770B595
:100C4C00036813F0020F17D013F0040F04D0564AA8
:100C5C00536843F4E0635360036813F0080F04D047
:100C6C00514A536843F4605353604F4A536823F01E
:100C7C00F0038468234353600D460446036813F065
:100C8C00010F52D04368012B23D0022B28D0464AA7
:100C9C00126812F0020F00F0828043494A6822F079
:100CAC00030213434B60FFF78DFA06466368012B72
:100CBC001DD0022B2AD03C4B5B6813F00C0F34D0A8
:100CCC00FFF780FA801B41F288339842F3D9032056
:100CDC0064E0354A126812F4003FDED101205DE079
:100CEC00314A126812F0007FD7D1012056E02E4B0A
:100CFC005B6803F00C03042B17D0FFF763FA801B1F
:100D0C0041F288339842F2D9032047E0264B5B68C6
:100D1C0003F00C03082B08D0FFF754FA801B41F2A8
:100D2C0088339842F2D9032038E01E4B1B6803F03D
:100D3C000703AB420CD91B4A136823F007032B4360
:100D4C001360136803F00703AB4201D0012025E0C8
:100D5C00236813F0040F06D0134A536823F4E0639E
:100D6C00E1680B435360236813F0080F07D00E4A59
:100D7C00536823F46053216943EAC1035360FFF7BE
:100D8C0013FF094B5B68C3F30313084AD35CD840C9
:100D9C00074B18600020FFF7D3F9002070BD01202D
:100DAC00FCE700BF0020024000100240D41D0008E8
:100DBC0008000020014B1868704700BF0800002095
:100DCC0008B5FFF7F7FF044B5B68C3F30223034A34
:100DDC00D35CD84008BD00BF00100240E41D0008E1
:100DEC0008B5FFF7E7FF044B5B68C3F3C223034A64
:100DFC00D35CD84008BD00BF00100240E41D0008C1
:100E0C0070B582B00446036813F0010F34D03E4B2A
:100E1C00DB6913F0805F48D13B4BDA6942F08052BA
:100E2C00DA61DB6903F080530193019B0125374B99
:100E3C001B6813F4807F3AD0334B1B6A13F4407356
:100E4C0011D0626802F440729A420CD02E4A136A96
:100E5C0023F440702E4901260E6000260E601062AD
:100E6C0013F0010F37D1284A136A23F440736168D9
:100E7C000B431362002D3FD1236813F0020F06D0F1
:100E8C00214A536823F44043A1680B435360236801
:100E9C0013F0100F35D01C4A536823F48003E1681B
:100EAC000B435360002002B070BD0025BFE7174A0A
:100EBC00136843F480731360FFF784F90646134BF1
:100ECC001B6813F4807FB7D1FFF77CF9801B642873
:100EDC00F5D90320E7E7FFF775F906460A4B1B6ABD
:100EEC0013F0020FBFD1FFF76DF9801B41F288336D
:100EFC009842F3D90320D6E7D36923F08053D3610A
:100F0C00BAE70020CFE700BF00100240007000409D
:100F1C004004424200283BD010B5044600238362B3
:100F2C0090F85130002B2ED0022384F851302268D7
:100F3C00136823F0400313606368A2681343E268EC
:100F4C0013432269134362691343A26902F40072CA
:100F5C001343E2691343226A1343A16A22680B43C9
:100F6C001360638B03F00403616A22680B435360C4
:100F7C002268D36923F40063D361002060650123E8
:100F8C0084F8513010BD80F8503000F0DDFDCBE717
:100F9C000120704730B4046A24F0100404628469A0
:100FAC00056A24F4407444EA022222F470421B03C2
:100FBC009BB21A4325F0A005090101F0A0012943B9
:100FCC008261016230BC704730B4046A24F48074CE
:100FDC000462C469056A24F00304224322F0F0027F
:100FEC001B01DBB21A4325F40075090201F40071F0
:100FFC002943C261016230BC704730B4046A24F4E6
:10100C0080540462C469056A24F4407444EA0222E0
:10101C0022F470421B039BB21A4325F400550903BA
:10102C0001F400512943C261016230BC70470000D9
:10103C0003681B4A90420AD0B0F1804F07D0A2F54A
:10104C009432904203D002F58062904203D123F097
:10105C0070034A681343124A90420AD0B0F1804F91
:10106C0007D0A2F59432904203D002F580629042F0
:10107C0003D123F44073CA68134323F080034A69F5
:10108C00134303608B68C3620B688362044B984202
:10109C0002D00123436170470B690363F9E700BF7A
:1010AC00002C0140A8B110B5044690F83D305BB15E
:1010BC00022384F83D30211D2068FFF7B9FF01237E
:1010CC0084F83D30002010BD80F83C3000F080FDED
:1010DC00EEE701207047000070B4046A24F00104AC
:1010EC0004628469056A114EB0420DD0B0F1804F94
:1010FC000AD0A6F59436B04206D006F58066B0420A
:10110C0002D044F0010202E024F00304224322F056
:10111C00F0021B01DBB2134325F00A0201F00A01B5
:10112C0011438361016270BC704700BF002C014009
:10113C0038B590F83C30012B58D00D4604460123AD
:10114C0080F83C30022380F83D30DAB1042A2AD0F2
:10115C00082A3AD0CB684A6809680068FFF74DFF47
:10116C002268D36923F44063D3612268D369A968E8
:10117C0043EA0123D361012384F83D30002084F835
:10118C003C0038BDCB684A6809680068FFF7A4FFCB
:10119C002268936923F00C03936122689369A96810
:1011AC000B439361E7E7CB684A6809680068FFF76F
:1011BC00F1FE2268936923F440639361226893697A
:1011CC00A96843EA01239361D5E7CB684A680968AB
:1011DC000068FFF7F9FE2268D36923F00C03D36192
:1011EC002268D369A9680B43D361C4E70220C8E71E
:1011FC0090F83C30012B22D030B4012280F83C20F6
:10120C00022380F83D300468636823F07003636048
:10121C00046863680D682B4363600468A36823F05B
:10122C008003A3600468A36849680B43A36080F83B
:10123C003D20002380F83C30184630BC704702201B
:10124C0070470268D36823F49073D36002685369C3
:10125C0023F001035361202380F83A30704790F853
:10126C003930DBB2212B2AD18368B3F5805F16D0DD
:10127C00036A5A1C02621A7803685A60C38C013BD9
:10128C009BB2C384EBB90268D36823F08003D360AC
:10129C000268D36843F04003D36000207047036AB0
:1012AC001B880268C3F30803536003691BB9036A04
:1012BC0002330362E2E7036A01330362DEE70220D2
:1012CC0070470020704700002DE9F843054602687E
:1012DC00136923F44053C1680B431361836802699B
:1012EC001343426913430168CA6822F4B05222F0D6
:1012FC000C021343CB600268536923F44073816979
:10130C000B4353610268594B9A4257D0FFF758FD73
:10131C0000EB800000EB80006C68A400B0FBF4F4E0
:10132C00534FA7FB043464092601FFF749FD00EB7A
:10133C00800000EB80006C68A400B0FBF4F9FFF7B0
:10134C003FFD00EB800000EB80006C68A400B0FB5C
:10135C00F4F4A7FB043464094FF0640808FB1494FC
:10136C0024013234A7FB0434640904F0F00434443F
:10137C00FFF726FD00EB800000EB80006E68B600E6
:10138C00B0FBF6F6FFF71CFD00EB800000EB8000D5
:10139C006B689B00B0FBF3F0A7FB0030400908FB27
:1013AC0010684FEA081808F13208A7FB0837C7F392
:1013BC0043172B6827449F60BDE8F883FFF710FDA7
:1013CC0000EB800000EB80006C68A400B0FBF4F430
:1013DC00274FA7FB043464092601FFF701FD00EB3E
:1013EC00800000EB80006C68A400B0FBF4F9FFF700
:1013FC00F7FC00EB800000EB80006C68A400B0FBF5
:10140C00F4F4A7FB043464094FF0640808FB14944B
:10141C0024013234A7FB0434640904F0F00434448E
:10142C00FFF7DEFC00EB800000EB80006E68B6007E
:10143C00B0FBF6F6FFF7D4FC00EB800000EB80006D
:10144C006B689B00B0FBF3F0A7FB0030400908FB76
:10145C0010684FEA081808F13208A7FB0837C7F3E1
:10146C0043172B6827449F60A6E700BF0038014054
:10147C001F85EB5158B310B5044690F839300BB3B7
:10148C00242384F839302268D36823F40053D360C2
:10149C002046FFF719FF2268136923F49043136168
:1014AC002268536923F02A0353612268D36843F4FA
:1014BC000053D3600020E063202384F8393084F893
:1014CC003A3010BD80F8383000F0B2FBD8E701207C
:1014DC00704790F83A30DBB2202B20D109B312B30D
:1014EC0090F83830012B20D081628285C285002390
:1014FC00C363222280F83A2080F838300168CA6829
:10150C0042F48072CA6001684A6942F001024A6181
:10151C000168CA6842F02002CA601846704702206F
:10152C0070470120704701207047022070477047B8
:10153C0008B50168CB6823F04003CB60202380F80A
:10154C003930FFF7F4FF002008BD08B590F83A30A9
:10155C00DBB2222B45D18368B3F5805F0ED00369D3
:10156C0003BB03685A68836A591C81621A70C38D65
:10157C00013B9BB2C385F3B1002033E0826A03695F
:10158C0043B903685B68C3F308031380836A0233AF
:10159C008362ECE703685B68DBB21380836A013318
:1015AC008362E4E703685B68826A511C816203F022
:1015BC007F031370DBE70268D36823F02003D3604A
:1015CC000268D36823F48073D3600268536923F0F4
:1015DC0001035361202380F83A3000F03FFA0020D9
:1015EC0000E0022008BD704710B50446026813687D
:1015FC00D168526913F00F0005D113F0200F02D0FF
:10160C0011F0200F53D1002867D012F0010202D143
:10161C0011F4907F61D013F0010F06D011F4807F8C
:10162C0003D0E06B40F00100E06313F0040F04D032
:10163C001AB1E06B40F00200E06313F0020F04D02B
:10164C001AB1E06B40F00400E06313F0080F04D013
:10165C001AB1E26B42F00802E263E26B002A48D056
:10166C0013F0200F02D011F0200F24D123685B69F6
:10167C0003F04003E26B12F0080F00D13BB320469D
:10168C00FFF7DFFD23685A6912F0400F1BD05A692F
:10169C0022F040025A61636B8BB11A4A5A63606B39
:1016AC00FEF748FF28B3606B436B984721E0204658
:1016BC00FFF74BFF1DE02046FFF747FFD6E720461C
:1016CC00FFF791FF15E02046FFF78DFF11E0204654
:1016DC00FFF789FF0023E3630BE013F0800F02D0C8
:1016EC0011F0800F06D113F0400F02D011F0400F13
:1016FC0004D110BD2046FFF7B2FDFAE72046FFF7F4
:10170C0017FFF6E71517000808B5406A0023C385D4
:10171C00C384FFF768FF08BD84B00F4B9A6942F091
:10172C0020029A619A6902F020020192019A9A6948
:10173C0042F004029A619A6902F004020292029A3F
:10174C009A6942F008029A619B6903F008030393BB
:10175C00039B04B0704700BF0010024070B584B00A
:10176C0000250195029503950C4C0D4B2360A5604B
:10177C00E56065614FF46023E361656001262661D5
:10178C002046FEF7E7FD04230193029603950DEB2B
:10179C0003012046FEF71CFD04B070BD3000002094
:1017AC000024014010B50C480C4B036047F6F46361
:1017BC00436000248460C46004610C234361846131
:1017CC00C461FFF757FE224621462620FEF75CFE39
:1017DC002620FEF78DFE10BDFC00002000440040CA
:1017EC0008B51048104B03604FF48273436000231C
:1017FC008360C360036143614FF4007282613822DD
:10180C00C2610362436283620A23C362FFF782FBF5
:10181C00012211462320FEF737FE2320FEF768FE37
:10182C0008BD00BFA40000200030014030B587B0D7
:10183C0000240494059400940194029403940F4D95
:10184C000F4B2B606C60AC60EC602C616C61AC611C
:10185C002846FFF727FC0494059404A92846FFF7B3
:10186C00C7FC0223009301230193029403942246A4
:10187C0069462846FFF75CFC07B030BD60000020CD
:10188C00002C014030B595B000240C940D940F94AD
:10189C001094059406940794089409940194029466
:1018AC000394049401220A924FF480330B930E920A
:1018BC000225119512934FF4E01313930AA8FEF727
:1018CC0085FF0F230593069507944FF480630893C7
:1018DC000994294605A8FFF79FF901954FF4004399
:1018EC00039301A8FFF78CFA15B030BD2DE9F04732
:1018FC0084B00025029503950127009703240194D9
:10190C00464E69463046FEF761FE4FF00209CDF8AF
:10191C0000900194029569463046FEF757FE10235D
:10192C0000930194029569463046FEF74FFE202342
:10193C0000930194029569463046FEF747FE40231A
:10194C0000930194029769463046FEF73FFE8023D0
:10195C0000930194029569463046FEF737FE0097D6
:10196C0001940295DFF8BC8069464046FEF72EFED6
:10197C00CDF800900194029569464046FEF726FE8C
:10198C004FF4806300934FF0120ACDF804A0039437
:10199C00029569464046FEF719FE4FF4006300932A
:1019AC00CDF804A00394029569464046FEF70EFE5E
:1019BC004FF4807300930195CDF80C906946304636
:1019CC00FEF704FE4FF4804300930195039469469F
:1019DC004046FEF7FBFD4FF44F53009301970394E1
:1019EC00CDF8089069464046FEF7F0FD47F6C06317
:1019FC00009301970394029769463046FEF7E6FD83
:101A0C004FF4C043009301970394CDF808906946B6
:101A1C000348FEF7DBFD04B0BDE8F0870008014089
:101A2C0000100140000C014008B5FEF7ADFBFFF7BC
:101A3C0029FFFFF771FEFFF791FEFFF7B3FEFFF7EB
:101A4C00CFFEFFF7F3FEFFF751FFFEE708B50248A4
:101A5C00FFF7CAFD08BD00BFFC00002008B501223D
:101A6C00034B1A7003490448FFF733FD08BD00BF50
:101A7C00280000203C010020FC00002000B583B0B1
:101A8C000F4B9A6942F001029A619A6902F00102C5
:101A9C000092009ADA6942F08052DA61DB6903F055
:101AAC0080530193019B0520FEF7DCFC054A53682B
:101ABC0023F0E06343F08063536003B05DF804FBF4
:101ACC00001002400000014010B588B000230493C0
:101ADC000593069307930268184B9A4201D008B0FD
:101AEC0010BD03F56C439A6942F400729A619A69CD
:101AFC0002F400720192019A9A6942F004029A610E
:101B0C009A6902F004020292029A9A6942F008025F
:101B1C009A619B6903F008030393039BF0230493DE
:101B2C000324059404A90648FEF750FD049405947B
:101B3C0004A90448FEF74AFDD1E700BF0024014088
:101B4C0000080140000C014010B586B00023029340
:101B5C0003930493059302681A4B9A4201D006B082
:101B6C0010BD03F560439A6942F480529A619A69F8
:101B7C0002F480520092009A9A6942F008029A612B
:101B8C009B6903F008030193019B28230293022312
:101B9C000393032305930C4C02A92046FEF716FD74
:101BAC001023029300230393049302A92046FEF70B
:101BBC000DFD064A536843F0E06343F001035360A4
:101BCC00CDE700BF00300140000C01400000014097
:101BDC0000B587B000230293039304930593026826
:101BEC00114B9A4202D007B05DF804FB03F5644335
:101BFC009A6942F400629A619A6902F40062009256
:101C0C00009A9A6942F004029A619B6903F00403FA
:101C1C000193019B06A94FF4807341F8103D0348D2
:101C2C00FEF7D4FCDFE700BF002C014000080140A8
:101C3C0010B586B0002302930393049305930268B6
:101C4C00164B9A4201D006B010BD03F5E633DA69A3
:101C5C0042F40032DA61DA6902F400320092009A3E
:101C6C009A6942F004029A619B6903F004030193A0
:101C7C00019B042302930223039303230593084C33
:101C8C0002A92046FEF7A2FC08230293002303932B
:101C9C00049302A92046FEF799FCD4E700440040C7
:101CAC00000801407047FEE7FEE7FEE7FEE77047DD
:101CBC007047704708B5FEF779FA08BD0F4B1A68E4
:101CCC0042F001021A6059680D4A0A405A601A68BB
:101CDC0022F0847222F480321A601A6822F4802274
:101CEC001A605A6822F4FE025A604FF41F029A607E
:101CFC00044B4FF000629A60704700BF0010024026
:101D0C000000FFF800ED00E0002103E00B4B5B58F6
:101D1C00435004310A480B4B42189A42F6D30A4AF4
:101D2C0002E0002342F8043B084B9A42F9D3FFF738
:101D3C00C5FF00F00FF8FFF777FE7047F41D0008A1
:101D4C00000000200C0000200C00002040010020AE
:101D5C00FEE7000070B500250C4E0D4CA41BA41022
:101D6C00A54209D100F01AF800250A4E0A4CA41B12
:101D7C00A410A54205D170BD56F825309847013501
:101D8C00EEE756F8253098470135F2E7EC1D0008D0
:101D9C00EC1D0008EC1D0008F01D0008F8B500BF94
:101DAC00F8BC08BC9E467047F8B500BFF8BC08BC30
:041DBC009E46704788
:101DC00002030405060708090A0B0C0D0E0F10107C
:101DD00001020000000000000000000001020304F6
:0C1DE000060708090000000001020304CF
:041DEC0031010008B9
:041DF0000D010008D9
:0C1DF400010000001000000000A24A04E2
:0400000508001D15BD
:00000001FF
