:020000040800F2
:1000000000500020E923000885230008872300080A
:10001000892300088B2300088D23000800000000BE
:100020000000000000000000000000008F23000816
:100030009123000800000000932300089523000886
:10004000312400083124000831240008312400083C
:10005000312400083124000831240008312400082C
:10006000312400083124000831240008312400081C
:10007000312400083124000831240008312400080C
:1000800031240008312400083124000831240008FC
:1000900031240008312400083124000831240008EC
:1000A00031240008312400083124000831240008DC
:1000B00031240008312400083124000831240008CC
:1000C00031240008312400083124000831240008BC
:1000D000312400083124000831240008712100086F
:1000E00031240008312400083124000800000000F9
:1000F0000000000000000000000000000000000000
:0C01000000000000000000005FF808F1A3
:10010C0010B5054C237833B9044B13B10448AFF345
:10011C0000800123237010BD64000020000000004B
:10012C007C24000808B5034B1BB103490348AFF30B
:10013C00008008BD00000000680000207C2400083E
:10014C0010B504460E4B18784FF47A73B3FBF0F3EA
:10015C000C4A1068B0FBF3F000F0EAF968B90F2C08
:10016C0001D901200AE0002221464FF0FF3000F0B7
:10017C009FF9034B5C60002000E0012010BD00BF24
:10018C00000000206000002008B5074A136843F007
:10019C0010031360032000F079F90020FFF7D0FF63
:1001AC0001F0FEFF002008BD00200240034A116848
:1001BC00034B1B780B441360704700BF8800002072
:1001CC0000000020014B1868704700BF8800002019
:1001DC0038B50446FFF7F6FF0546B4F1FF3F02D0F1
:1001EC00044B1B781C44FFF7EDFF401BA042FAD3D5
:1001FC0038BD00BF0000002030B482B00023019352
:10020C0090F82430012B00F08B800246012380F8FB
:10021C0024304B68062B29D80568686B03EB8303E5
:10022C00053B1F249C4020EA04000C6804FA03F3ED
:10023C0003436B630B68092B38D91568E86803EB2B
:10024C0043031E3B07249C4020EA04008C6804FAFC
:10025C0003F30343EB600B68103B012B34D90020F4
:10026C00002382F8243002B030BC70470C2B0ED81F
:10027C000568286B03EB8303233B1F249C4020EA77
:10028C0004000C6804FA03F303432B63D2E70568FC
:10029C00E86A03EB8303413B1F249C4020EA0400E3
:1002AC000C6804FA03F30343EB62C3E7156828698F
:1002BC0003EB430307249C4020EA04008C6804FAF7
:1002CC0003F303432B61C6E713681648834205D03A
:1002DC00936A43F0200393620120C1E7986810F4FD
:1002EC00000F1BD1986840F4000098600B68102B2D
:1002FC0001D00020B4E70C4B1B680C49A1FB031385
:10030C009B0C03EB83035900019102E0019B013B21
:10031C000193019B002BF9D10020A1E700209FE75E
:10032C000220A0E7002401406000002083DE1B4374
:10033C0038B503689A6812F0010F01D1002038BD5E
:10034C0004469A6822F001029A60FFF73BFF0546CB
:10035C0023689B6813F0010F0ED0FFF733FF401B8F
:10036C000228F5D9A36A43F01003A362E36A43F0B1
:10037C000103E3620120E2E70020E0E700287FD0E0
:10038C0038B50446836A002B33D02046FFF7D0FFE4
:10039C00A36A13F010036DD100286BD1A26A22F46A
:1003AC00885222F0020242F00202A2626268E16903
:1003BC000A43E56842EA4502A168B1F5807F21D085
:1003CC0001291CD0616901291FD02568696821F4B5
:1003DC0069410B436B6021688D682A4B2B4013439A
:1003EC008B60A368B3F5807F20D0012B1ED0002139
:1003FC001FE0C36280F8243001F0F4FEC5E74FF42F
:10040C008073DFE74FF48073DCE735B9A1690139FC
:10041C0043EA413343F40063D7E7A16A41F020017A
:10042C00A162E16A41F00101E162CEE72369013B7F
:10043C0019052568EB6A23F470030B43EB62236800
:10044C009968114B0B409A420BD0A36A23F012030C
:10045C0043F01003A362E36A43F00103E36201205B
:10046C000DE00023E362A36A23F0030343F00103CE
:10047C00A36204E0A36A43F01003A362012038BD19
:10048C0001207047FDF7E1FFFE0E1FFF074AD368FE
:10049C0023F4E0631B041B0C000200F4E06018431F
:1004AC0040F0BF6040F40030D060704700ED00E0D9
:1004BC0030B4174BDB68C3F30223C3F10704042CDD
:1004CC0028BF04241D1D062D18D9033B4FF0FF3502
:1004DC0005FA04F421EA0401994005FA03F322EA2F
:1004EC000303194300280BDB0901C9B200F160407A
:1004FC0000F5614080F8001330BC70470023E5E73D
:10050C0000F00F000901C9B2024B1954F4E700BF07
:10051C0000ED00E014ED00E000F01F0240090123A3
:10052C009340024A42F82030704700BF00E100E0DF
:10053C000138B0F1807F0AD2064B5860064AF02190
:10054C0082F823100020986007221A60704701205F
:10055C00704700BF10E000E000ED00E008B590F837
:10056C002130022B03D004238363012008BD0268D1
:10057C00136823F00E0313600268136823F0010361
:10058C0013600368194A934214D0143293421FD05B
:10059C00143293421ED0143293421ED01432934222
:1005AC001ED01432934202D04FF0807203E04FF40D
:1005BC00801200E001220E4B5A60012380F821309A
:1005CC00002380F82030436B6BB198470020CDE7B7
:1005DC001022F0E74FF48072EDE74FF48052EAE717
:1005EC004FF48032E7E70020C0E700BF080002406C
:1005FC0000000240F0B482B000263546A1E0002C89
:10060C0059D0012C00D1CE68FF2B68D88446FF2B23
:10061C0068D8AC00DCF800200F27A74022EA0702BC
:10062C0006FA04F42243CCF800204A6812F0805FEA
:10063C0000F086805E4A946944F0010494619269EA
:10064C0002F001020192019AAC08A71C594A52F817
:10065C00272005F00307BF004FF00F0C0CFA07FC26
:10066C0022EA0C0C544A904242D002F5806290422D
:10067C007FD002F5806290427DD002F5806290427C
:10068C0034D0042235E04D4FBC4214D00BD94C4F22
:10069C00BC4210D007F58037BC420CD0A7F58017B0
:1006AC00BC42B1D107E0A7F58017BC4203D007F5D7
:1006BC008037BC42A8D18C687CB1012C08D0426137
:1006CC000826A1E7CE6808369EE7CE680C369BE775
:1006DC000261082698E7002696E7042694E700F1C5
:1006EC00040C94E7A5F10804A40093E7032200E0AE
:1006FC000022BA4042EA0C0202342E4F47F8242062
:10070C004A6812F4803F38D02E4C22681A4322607B
:10071C004A6812F4003F36D02A4C62681A43626071
:10072C004A6812F4801F34D0264CA2681A43A26087
:10073C004A6812F4001F32D0224CE2681343E36083
:10074C0001350F2D31D80122AA400B6813409A4273
:10075C00F6D14C68122CB8D095D8022CB2D07FF6BA
:10076C004EAF032CB7D0112C7FF44EAFCE680436AD
:10077C004AE70122BDE70222BBE7124C226822EABB
:10078C0003022260C4E70F4C626822EA0302626033
:10079C00C6E70C4CA26822EA0302A260C8E7094C27
:1007AC00E26822EA0303E360CAE702B0F0BC7047D8
:1007BC000010024000000140000801400000211020
:1007CC00000031100004014012B9090401617047A6
:1007DC000161704782B0084B1B68084AA2FB0323D7
:1007EC005B0A00FB03F0019000BF019B5A1E0192B3
:1007FC00002BF9D102B0704760000020D34D62107D
:10080C0070B582B00446036813F0010F2CD0AB4BCB
:10081C005B6803F00C03042B1DD0A84B5B6803F042
:10082C000C03082B12D06368B3F5803F41D0002B2A
:10083C0055D103F1804303F504331A6822F4803256
:10084C001A601A6822F480221A6037E09B4B5B68AE
:10085C0013F4803FE7D0994B1B6813F4003F03D08F
:10086C006368002B00F0AE81236813F0020F76D082
:10087C00924B5B6813F00C0F5FD0904B5B6803F0EE
:10088C000C03082B54D02369002B00F08A808C4B6E
:10089C0001221A60FFF796FC0546884B1B6813F083
:1008AC00020F75D1FFF78EFC401B0228F5D90320EF
:1008BC008BE1824A136843F480331360636843B35B
:1008CC00FFF780FC05467D4B1B6813F4003FCBD132
:1008DC00FFF778FC401B6428F5D9032075E1B3F5CC
:1008EC00A02F09D0754B1A6822F480321A601A684E
:1008FC0022F480221A60E1E703F18043A3F53C3334
:10090C001A6842F480221A601A6842F480321A6023
:10091C00D4E7FFF757FC0546684B1B6813F4003F00
:10092C00A2D0FFF74FFC401B6428F5D903204CE103
:10093C00624B5B6813F4803FA5D1604B1B6813F0CE
:10094C00020F04D02369012B01D001203DE15B4A49
:10095C00136823F0F803616943EAC1031360236849
:10096C0013F0080F32D0A369002B5BD0554B01223A
:10097C001A60FFF727FC0546504B5B6A13F0020F19
:10098C0021D1FFF71FFC401B0228F5D903201CE1E5
:10099C004A4A136823F0F803616943EAC103136000
:1009AC00DDE7474B00221A60FFF70CFC0546434B72
:1009BC001B6813F0020FD2D0FFF704FC401B022877
:1009CC00F5D9032001E10120FFF704FF236813F0A0
:1009DC00040F00F09780394BDB6913F0805F33D143
:1009EC00364BDA6942F08052DA61DB6903F08053EE
:1009FC000193019B0125344B1B6813F4807F25D098
:100A0C00E368012B36D0002B4CD103F1804303F566
:100A1C0004331A6A22F001021A621A6A22F00402E2
:100A2C001A622CE0274B00221A60FFF7CBFB05461D
:100A3C00224B5B6A13F0020FC8D0FFF7C3FB401BBD
:100A4C000228F5D90320C0E00025D4E71E4A13681C
:100A5C0043F480731360FFF7B5FB06461A4B1B6813
:100A6C0013F4807FCCD1FFF7ADFB801B6428F5D944
:100A7C000320AAE0114A136A43F001031362E368EE
:100A8C0073B3FFF79FFB06460C4B1B6A13F0020F68
:100A9C0037D1FFF797FB801B41F288339842F3D98B
:100AAC00032092E0052B11D0044B1A6A22F00102AC
:100ABC001A621A6A22F004021A62E0E7001002407D
:100ACC00000042428004424200700040414B1A6ACE
:100ADC0042F004021A621A6A42F001021A62CEE76C
:100AEC00FFF770FB06463B4B1B6A13F0020F08D056
:100AFC00FFF768FB801B41F288339842F3D903203F
:100B0C0063E0E5B9E369002B5ED0324A526802F02B
:100B1C000C02082A5BD0022B17D02F4B00221A6034
:100B2C00FFF750FB04462B4B1B6813F0007F47D09C
:100B3C00FFF748FB001B0228F5D9032045E0254AA6
:100B4C00D36923F08053D361DCE7234B00221A6076
:100B5C00FFF738FB05461F4B1B6813F0007F06D0D0
:100B6C00FFF730FB401B0228F5D903202DE0236A48
:100B7C00B3F5803F1AD017494B6823F47413226ADB
:100B8C00606A024313434B60134B01221A60FFF758
:100B9C0019FB04460F4B1B6813F0007F0ED1FFF7B7
:100BAC0011FB001B0228F5D903200EE0094A5368FB
:100BBC0023F40033A1680B435360DCE7002004E00E
:100BCC00002002E0012000E0002002B070BD0120F6
:100BDC00FBE700BF001002406000424210B487B037
:100BEC00164C94E80F000DF1180C0CE90F00238A39
:100BFC00ADF80430124B5B6803F00C02082A1AD1D2
:100C0C00C3F38342624412F8102C13F4803F05D1D5
:100C1C000C4800FB02F007B010BC7047084B5B6837
:100C2C00C3F34043634413F8143C074800FB02F041
:100C3C00B0FBF3F0EFE70448EDE700BF94240008A5
:100C4C000010024000093D0000127A00624B1B6844
:100C5C0003F007038B420CD25F4A136823F007039F
:100C6C000B431360136803F007038B4201D0012080
:100C7C00704770B5036813F0020F17D013F0040F10
:100C8C0004D0564A536843F4E0635360036813F08E
:100C9C00080F04D0514A536843F4605353604F4AD1
:100CAC00536823F0F0038468234353600D460446D5
:100CBC00036813F0010F52D04368012B23D0022B91
:100CCC0028D0464A126812F0020F00F08280434985
:100CDC004A6822F0030213434B60FFF773FA06468F
:100CEC006368012B1DD0022B2AD03C4B5B6813F0A0
:100CFC000C0F34D0FFF766FA801B41F28833984210
:100D0C00F3D9032064E0354A126812F4003FDED1B7
:100D1C0001205DE0314A126812F0007FD7D101202A
:100D2C0056E02E4B5B6803F00C03042B17D0FFF737
:100D3C0049FA801B41F288339842F2D9032047E0EC
:100D4C00264B5B6803F00C03082B08D0FFF73AFA2C
:100D5C00801B41F288339842F2D9032038E01E4BB5
:100D6C001B6803F00703AB420CD91B4A136823F032
:100D7C0007032B431360136803F00703AB4201D046
:100D8C00012025E0236813F0040F06D0134A5368A2
:100D9C0023F4E063E1680B435360236813F0080FFE
:100DAC0007D00E4A536823F46053216943EAC10308
:100DBC005360FFF713FF094B5B68C3F30313084A37
:100DCC00D35CD840074B18600020FFF7B9F900201E
:100DDC0070BD0120FCE700BF002002400010024063
:100DEC00A824000860000020014B1868704700BF61
:100DFC006000002008B5FFF7F7FF044B5B68C3F3F6
:100E0C000223034AD35CD84008BD00BF0010024047
:100E1C00B824000808B5FFF7E7FF044B5B68C3F381
:100E2C00C223034AD35CD84008BD00BF0010024067
:100E3C00B824000870B582B00446036813F0010FA3
:100E4C0034D03E4BDB6913F0805F48D13B4BDA6901
:100E5C0042F08052DA61DB6903F080530193019B0D
:100E6C000125374B1B6813F4807F3AD0334B1B6A38
:100E7C0013F4407311D0626802F440729A420CD0A1
:100E8C002E4A136A23F440702E4901260E60002668
:100E9C000E60106213F0010F37D1284A136A23F445
:100EAC00407361680B431362002D3FD1236813F02C
:100EBC00020F06D0214A536823F44043A1680B4328
:100ECC005360236813F0100F35D01C4A536823F479
:100EDC008003E1680B435360002002B070BD002515
:100EEC00BFE7174A136843F480731360FFF76AF97E
:100EFC000646134B1B6813F4807FB7D1FFF762F9DA
:100F0C00801B6428F5D90320E7E7FFF75BF9064659
:100F1C000A4B1B6A13F0020FBFD1FFF753F9801B6A
:100F2C0041F288339842F3D90320D6E7D36923F0F2
:100F3C008053D361BAE70020CFE700BF0010024016
:100F4C00007000404004424200283BD010B50446DB
:100F5C000023836290F85130002B2ED0022384F8AA
:100F6C0051302268136823F0400313606368A26851
:100F7C001343E26813432269134362691343A26962
:100F8C0002F400721343E2691343226A1343A16A09
:100F9C0022680B431360638B03F00403616A2268BD
:100FAC000B4353602268D36923F40063D3610020A0
:100FBC006065012384F8513010BD80F8503001F089
:100FCC0063F9CBE7012070470268D36823F4907370
:100FDC00D3600268536923F001035361202380F826
:100FEC003A30704790F83930DBB2212B2AD1836824
:100FFC00B3F5805F16D0036A5A1C02621A78036834
:10100C005A60C38C013B9BB2C384EBB90268D368B2
:10101C0023F08003D3600268D36843F04003D360AD
:10102C0000207047036A1B880268C3F308035360EF
:10103C0003691BB9036A02330362E2E7036A0133F3
:10104C000362DEE702207047002070472DE9F84369
:10105C0005460268136923F44053C1680B431361BE
:10106C00836802691343426913430168CA6822F416
:10107C00B05222F00C021343CB600268536923F484
:10108C00407381690B4353610268594B9A4257D0A4
:10109C00FFF7B0FE00EB800000EB80006C68A40052
:1010AC00B0FBF4F4534FA7FB043464092601FFF79B
:1010BC00A1FE00EB800000EB80006C68A400B0FB8C
:1010CC00F4F9FFF797FE00EB800000EB80006C68F2
:1010DC00A400B0FBF4F4A7FB043464094FF06408DB
:1010EC0008FB149424013234A7FB0434640904F083
:1010FC00F0043444FFF77EFE00EB800000EB800030
:10110C006E68B600B0FBF6F6FFF774FE00EB8000DD
:10111C0000EB80006B689B00B0FBF3F0A7FB00308A
:10112C00400908FB10684FEA081808F13208A7FBC1
:10113C000837C7F343172B6827449F60BDE8F88333
:10114C00FFF768FE00EB800000EB80006C68A400E9
:10115C00B0FBF4F4274FA7FB043464092601FFF716
:10116C0059FE00EB800000EB80006C68A400B0FB23
:10117C00F4F9FFF74FFE00EB800000EB80006C6889
:10118C00A400B0FBF4F4A7FB043464094FF064082A
:10119C0008FB149424013234A7FB0434640904F0D2
:1011AC00F0043444FFF736FE00EB800000EB8000C7
:1011BC006E68B600B0FBF6F6FFF72CFE00EB800075
:1011CC0000EB80006B689B00B0FBF3F0A7FB0030DA
:1011DC00400908FB10684FEA081808F13208A7FB11
:1011EC000837C7F343172B6827449F60A6E700BF57
:1011FC00003801401F85EB5158B310B5044690F8E8
:10120C0039300BB3242384F839302268D36823F4A3
:10121C000053D3602046FFF719FF2268136923F4AB
:10122C00904313612268536923F02A0353612268A7
:10123C00D36843F40053D3600020E063202384F888
:10124C00393084F83A3010BD80F8383001F058F855
:10125C00D8E70120704790F83A30DBB2202B20D130
:10126C0009B312B390F83830012B20D081628285FB
:10127C00C2850023C363222280F83A2080F83830DC
:10128C000168CA6842F48072CA6001684A6942F017
:10129C0001024A610168CA6842F02002CA6018461D
:1012AC0070470220704701207047012070470220D0
:1012BC007047704708B50168CB6823F04003CB60DA
:1012CC00202380F83930FFF7F4FF002008BD08B563
:1012DC0090F83A30DBB2222B45D18368B3F5805FAE
:1012EC000ED0036903BB03685A68836A591C816278
:1012FC001A70C38D013B9BB2C385F3B1002033E060
:10130C00826A036943B903685B68C3F308031380FB
:10131C00836A02338362ECE703685B68DBB2138099
:10132C00836A01338362E4E703685B68826A511C59
:10133C00816203F07F031370DBE70268D36823F04C
:10134C002003D3600268D36823F48073D3600268EF
:10135C00536923F001035361202380F83A3000F0E5
:10136C0009FF002000E0022008BD704710B50446BC
:10137C0002681368D168526913F00F0005D113F09D
:10138C00200F02D011F0200F53D1002867D012F09B
:10139C00010202D111F4907F61D013F0010F06D03D
:1013AC0011F4807F03D0E06B40F00100E06313F098
:1013BC00040F04D01AB1E06B40F00200E06313F0AC
:1013CC00020F04D01AB1E06B40F00400E06313F09C
:1013DC00080F04D01AB1E26B42F00802E263E26B30
:1013EC00002A48D013F0200F02D011F0200F24D186
:1013FC0023685B6903F04003E26B12F0080F00D125
:10140C003BB32046FFF7E0FD23685A6912F0400F0A
:10141C001BD05A6922F040025A61636B8BB11A4A95
:10142C005A63606BFFF79AF828B3606B436B98476D
:10143C0021E02046FFF74BFF1DE02046FFF747FF5A
:10144C00D6E72046FFF791FF15E02046FFF78DFF0A
:10145C0011E02046FFF789FF0023E3630BE013F054
:10146C00800F02D011F0800F06D113F0400F02D084
:10147C0011F0400F04D110BD2046FFF7B3FDFAE781
:10148C002046FFF717FFF6E79914000808B5406AE5
:10149C000023C385C384FFF768FF08BD08B510F0AF
:1014AC00800F26D13F4B1B78012B48D03E4B1B782D
:1014BC00012B57D03D4B1B78012B64D03C4B1B7838
:1014CC00012B67D03B4B1B78012B40D13A490A6862
:1014DC00531C0B6039498854022B38D14A78384B4D
:1014EC001A700021084600F0A5FA324B00221A703F
:1014FC002DE00023304A1360304A1370537000F013
:10150C00F00090280BD080280DD0C0280FD0B02828
:10151C0011D0F0281BD1274B01221A7017E0214B58
:10152C0001221A7013E0204B01221A700FE01F4B9E
:10153C0001221A700BE01E4B01221A7007E01E49A3
:10154C000A68531C0B601D498854022B01D00020E3
:10155C0008BD0B464978187800F06CFA114B002244
:10156C001A70F4E714490A68531C0B601349885429
:10157C00022BECD10B464978187800F00BFA0A4B89
:10158C0000221A70E3E70C4A1368591C11600B4ACD
:10159C00D054DCE7084A1368591C1160074AD05430
:1015AC00D5E700BF1E0100201D01002061010020B5
:1015BC00E90000201C010020800000208C0000208D
:1015CC001F01002038B50546002204212048FFF7F2
:1015DC00FBF8002202211F48FFF7F6F815F0010F67
:1015EC0024D115F0020F27D1002415F0040F25D1BA
:1015FC0015F0080F01D044F0200415F0100F01D0A5
:10160C0044F0400415F0200F01D044F0800415F094
:10161C00400F01D044F4807415F0800F14D1E343D3
:10162C0044EA03440C4B1C61002038BD0122042108
:10163C000748FFF7C9F8D4E70824D6E701220221AE
:10164C000448FFF7C1F8D3E744F40074E7E700BFA0
:10165C000014014000100140000C0140F8B5044694
:10166C000E461546012809D0022C64D0032C00F03C
:10167C00A780042C00F0E9800120F8BD964F0022D1
:10168C004FF480413846FFF79FF83046FFF79AFF3A
:10169C0000224FF400419148FFF796F800224FF4D6
:1016AC0000513846FFF790F8002301E00133DBB21C
:1016BC00052BFBD901224FF400418848FFF784F831
:1016CC0001224FF400518448FFF77EF80023212BB0
:1016DC0002D80133DBB2FAE77F4F01224FF480418D
:1016EC003846FFF771F82846FFF76CFF00224FF4DD
:1016FC0000417A48FFF768F800224FF40051384651
:10170C00FFF762F8002301E00133DBB2052BFBD9B4
:10171C0001224FF400417148FFF756F801224FF4B3
:10172C0000516D48FFF750F8002301E00133DBB2A4
:10173C00DC2BFBD998E7684F00224FF480413846E8
:10174C00FFF742F83046FFF73DFF00224FF41051EF
:10175C003846FFF739F8002301E00133DBB2052BE3
:10176C00FBD901224FF410515B48FFF72DF80023F1
:10177C00212B02D80133DBB2FAE7574F01224FF489
:10178C0080413846FFF720F82846FFF71BFF002260
:10179C004FF410513846FFF717F8002301E00133DE
:1017AC00DBB2052BFBD901224FF410514A48FFF74D
:1017BC000BF8002301E00133DBB2DC2BFBD955E73E
:1017CC00454F00224FF480413846FEF7FDFF30466E
:1017DC00FFF7F8FE00224FF420513846FEF7F4FFD5
:1017EC00002301E00133DBB2052BFBD901224FF4BE
:1017FC0020513948FEF7E8FF0023212B02D8013392
:10180C00DBB2FAE7344F01224FF480413846FEF741
:10181C00DBFF2846FFF7D6FE00224FF42051384656
:10182C00FEF7D2FF002301E00133DBB2052BFBD91D
:10183C0001224FF420512848FEF7C6FF002301E097
:10184C000133DBB2DC2BFBD913E7234C00224FF422
:10185C0080412046FEF7B8FF3046FFF7B3FE00226A
:10186C004FF440512046FEF7AFFF002301E0013357
:10187C00DBB2052BFBD901224FF440511648FEF781
:10188C00A3FF002301E00133DBB2212BFBD9124C67
:10189C0001224FF480412046FEF796FF2846FFF7C1
:1018AC0091FE00224FF440512046FEF78DFF00239D
:1018BC0001E00133DBB2052BFBD901224FF440517F
:1018CC000548FEF781FF002301E00133DBB2DC2B7E
:1018DC00FBD90020D1E600BF0010014000080140F8
:1018EC0070B50546A0F16006F6B2294C04EBC004B5
:1018FC00A27831460120FFF7B1FE503DEDB22279BE
:10190C00920042F0200252B26388C3F301231A43BF
:10191C00D2B229460120FFF7A1FEA278314602205F
:10192C00FFF79CFE2279920042F0200252B26388AB
:10193C00C3F301231A43D2B229460220FFF78EFECD
:10194C00A27831460320FFF789FE2279920042F0FB
:10195C00200252B26388C3F301231A43D2B2294640
:10196C000320FFF77BFEA27831460420FFF776FEBA
:10197C002279920042F0200252B26388C3F3012311
:10198C001A43D2B229460420FFF768FE002070BD2E
:10199C0064010020F8B50546002400E00134082C51
:1019AC0043DC234B03EBC4035B78AB42F6D1204BF7
:1019BC0013F83430012BF1D1E6B2A6F16007FFB277
:1019CC00002239460120FFF749FE503EF6B20022B4
:1019DC0031460120FFF742FE002239460220FFF774
:1019EC003DFE002231460220FFF738FE0022394628
:1019FC000320FFF733FE002231460320FFF72EFEB3
:101A0C00002239460420FFF729FE0022314604202B
:101A1C00FFF724FE064901EBC40200235370137137
:101A2C005371538001F83430B8E70020F8BD00BF83
:101A3C006401002070B50446594BA3FB0023DB085E
:101A4C0003EB43039A00821A80B3D2B20232D2B2B1
:101A5C000020082800F289800546524B13F83030DC
:101A6C00002B55D04F4B03EBC0035B78A3424FD0F8
:101A7C000130C0B2EDE74C4D55F82300403A02332B
:101A8C0055F823301B1A03FB02F3484A82FB03521E
:101A9C001A44DB17C3EB62130344424A02EBC40142
:101AAC004B802046FFF71CFF0134E4B2082C5CD8B5
:101ABC003C4B13F83430012BF6D13A4B03EBC403F7
:101ACC005B78374AA2FB0302D20802EB4202900079
:101ADC001B1ADBB20233DBB2354A12783F2ACAD862
:101AEC00314D55F82300C2F14002023B55F823302A
:101AFC00C31A03FB02F32D4A82FB03521A44DB1771
:101B0C00A3EB62130344274A02EBC4014B80C8E7E2
:101B1C00244E012306F8353006EBC506747003F12C
:101B2C00AA33A3FB0443DB08013B337149087171F1
:101B3C001F4B1B783F2B1AD81B4E56F82240C3F173
:101B4C004001023A56F82230E31A03FB01F3174A1C
:101B5C0082FB03121A44DB17A3EB62132344114AD2
:101B6C0002EBC5056B80FFF7BBFE002070BD0E4E6F
:101B7C0056F82240A3F14001023256F822301B1BCA
:101B8C0003FB01F3094A82FB03121A44DB17C3EB74
:101B9C0062132344034A02EBC5056B80E3E700BFE5
:101BAC00ABAAAAAA640100200800002083200882A6
:101BBC001F01002010B50A4C00224FF400412046B2
:101BCC00FEF702FE0120FEF703FB01224FF4004159
:101BDC002046FEF7F9FD0120FEF7FAFA10BD00BF12
:101BEC000010014038B5202201210846FFF736FDD0
:101BFC00202201210220FFF731FD002552E0AD4CDF
:101C0C002C4494F8401020310122C9B21046FFF741
:101C1C0025FD94F8401040310022C9B20120FFF795
:101C2C001DFD94F840106031F022C9B20120FFF77D
:101C3C0015FD94F84010772281F080010120FFF708
:101C4C000DFD94F8401020390022C9B20120FFF795
:101C5C0005FD94F84C1020310122C9B21046FFF753
:101C6C00FDFC94F84C1040310022C9B20120FFF762
:101C7C00F5FC94F84C106031F022C9B20120FFF74A
:101C8C00EDFC94F84C10772281F080010120FFF7D5
:101C9C00E5FC94F84C1020390022C9B20120FFF762
:101CAC00DDFC0135082DAADD002552E0814C2C44C9
:101CBC0094F8401020310122C9B20220FFF7CEFC6B
:101CCC0094F8401040310022C9B20220FFF7C6FC44
:101CDC0094F840106031F022C9B20220FFF7BEFC2C
:101CEC0094F84010772281F080010220FFF7B6FCB7
:101CFC0094F8401020390022C9B20220FFF7AEFC44
:101D0C0094F84C1020310122C9B20220FFF7A6FC36
:101D1C0094F84C1040310022C9B20220FFF79EFC0F
:101D2C0094F84C106031F022C9B20220FFF796FCF7
:101D3C0094F84C10772281F080010220FFF78EFC82
:101D4C0094F84C1020390022C9B20220FFF786FC0F
:101D5C000135082DAADD002552E0564C2C4494F890
:101D6C00401020310122C9B20320FFF777FC94F810
:101D7C00401040310022C9B20320FFF76FFC94F8E9
:101D8C0040106031F022C9B20320FFF767FC94F8D1
:101D9C004010772281F080010320FFF75FFC94F85C
:101DAC00401020390022C9B20320FFF757FC94F8E9
:101DBC004C1020310122C9B20320FFF74FFC94F8DC
:101DCC004C1040310022C9B20320FFF747FC94F8B5
:101DDC004C106031F022C9B20320FFF73FFC94F89D
:101DEC004C10772281F080010320FFF737FC94F828
:101DFC004C1020390022C9B20320FFF72FFC01350B
:101E0C00082DAADD002552E02A4C2C4494F84010F1
:101E1C0020310122C9B20420FFF720FC94F84010B5
:101E2C0040310022C9B20420FFF718FC94F840108E
:101E3C006031F022C9B20420FFF710FC94F8401076
:101E4C00772281F080010420FFF708FC94F8401001
:101E5C0020390022C9B20420FFF700FC94F84C1082
:101E6C0020310122C9B20420FFF7F8FB94F84C1082
:101E7C0040310022C9B20420FFF7F0FB94F84C105B
:101E8C006031F022C9B20420FFF7E8FB94F84C1043
:101E9C00772281F080010420FFF7E0FB94F84C10CE
:101EAC0020390022C9B20420FFF7D8FB0135082DD8
:101EBC00AADD38BD080000202DE9F04389B00024CC
:101ECC000494059406940794364B9A6942F01002D8
:101EDC009A619A6902F010020092009A9A6942F093
:101EEC0020029A619A6902F020020192019A9A6981
:101EFC0042F004029A619A6902F004020292029A78
:101F0C009A6942F008029A619B6903F008030393F3
:101F1C00039BDFF89C9022464FF68F514846FEF704
:101F2C0053FCDFF89080224648F20F614046FEF7E2
:101F3C004BFC1D4F224641F2F0313846FEF744FC73
:101F4C001A4E224604213046FEF73EFC4FF6CF5384
:101F5C0004930124059406940325079504A9484687
:101F6C00FEF748FB48F20F6304930594069407951B
:101F7C0004A94046FEF73EFB41F2F8330493059466
:101F8C000694079504A93846FEF734FB0423049302
:101F9C0005940694079504A93046FEF72BFB09B06F
:101FAC00BDE8F08300100240000C01400014014019
:101FBC00001001400008014070B584B00025019567
:101FCC00029503950E4C0F4B2360A560E56065618F
:101FDC004FF46023E3616560012626612046FEF71D
:101FEC00CDF904230193029603950DEB03012046D2
:101FFC00FEF702F901A92046FEF7FEF804B070BD09
:10200C00EC0000200024014008B50B480B4B03608A
:10201C004FF48273436000238360C36003614361A8
:10202C004FF400728261C3610362436283620A23CC
:10203C00C362FEF789FF08BD900000200038004005
:10204C0010B50C480C4B036047F6F4634360002456
:10205C008460C46004610C2343618461C461FFF734
:10206C00CBF8224621462720FEF722FA2720FEF73E
:10207C0053FA10BDAC0100200048004030B595B0BB
:10208C0000240C940D940F941094059406940794CA
:10209C0008940994019402940394049401220A92E2
:1020AC004FF480330B930E920225119512934FF43B
:1020BC00E01313930AA8FEF7A3FB0F2305930695D1
:1020CC0007944FF4806308930994294605A8FEF7FA
:1020DC00BDFD01954FF40043039301A8FEF7AAFE42
:1020EC0015B030BD08B5FEF74FF8FFF7C7FFFFF787
:1020FC00E3FEFFF761FFFFF787FFFFF7A1FFFFF795
:10210C0059FDFFF76FFDC820FEF762F80122104958
:10211C001048FFF7A0F801224FF4E0510E48FEF7EB
:10212C0053FB01224FF400410C48FEF74DFB0C4BC6
:10213C001B78002BFBD00A4B00221A70044B18782A
:10214C00FFF7ACF9012211460348FEF73DFBEEE721
:10215C00EC010020AC0100200010014000080140FF
:10216C008400002008B50248FFF700F908BD00BF45
:10217C00AC01002008B50268054B9A4200D008BD9E
:10218C000122044B1A7004490448FFF764F8F6E77F
:10219C000048004084000020EC010020AC0100202D
:1021AC0082B00E4B9A6942F001029A619A6902F070
:1021BC0001020092009ADA6942F08052DA61DB691E
:1021CC0003F080530193019B054A536823F0E063AD
:1021DC0043F08063536002B0704700BF00100240B0
:1021EC000000014010B588B00023049305930693BA
:1021FC0007930268204B9A4201D008B010BD03F53A
:10220C006C439A6942F400729A619A6902F4007202
:10221C000092009A9A6942F004029A619A6902F05B
:10222C0004020192019A9A6942F010029A619A6929
:10223C0002F010020292029A9A6942F008029A6124
:10224C009B6903F008030393039BF023049303247B
:10225C00059404A90948FEF7CDF93023049305949D
:10226C0004A90748FEF7C6F90494059404A9054887
:10227C00FEF7C0F9C1E700BF00240140000801408F
:10228C0000100140000C014010B586B000230293F1
:10229C000393049305930268174B9A4201D006B03E
:1022AC0010BD03F5EC33DA6942F48042DA61DA6985
:1022BC0002F480420092009A9A6942F008029A61F4
:1022CC009B6903F008030193019B4FF42043029395
:1022DC000223039303230593084C02A92046FEF71F
:1022EC0089F94FF48043029300230393049302A9CA
:1022FC002046FEF77FF9D2E700380040000C014081
:10230C0010B586B0002302930393049305930268DF
:10231C00174B9A4201D006B010BD03F5E433DA69CD
:10232C0042F48022DA61DA6902F480220092009A87
:10233C009A6942F008029A619B6903F008030193C1
:10234C00019B4FF4806302930223039303230593B1
:10235C00084C02A92046FEF74DF94FF40063029396
:10236C0000230393049302A92046FEF743F9D2E716
:10237C0000480040000C01407047FEE7FEE7FEE716
:10238C00FEE770477047704708B5FDF70FFF08BDB3
:10239C000F4B1A6842F001021A6059680D4A0A4044
:1023AC005A601A6822F0847222F480321A601A6819
:1023BC0022F480221A605A6822F4FE025A604FF40A
:1023CC001F029A60044B4FF000629A60704700BF86
:1023DC00001002400000FFF800ED00E0002103E0D7
:1023EC000B4B5B58435004310A480B4B42189A4232
:1023FC00F6D30A4A02E0002342F8043B084B9A4207
:10240C00F9D3FFF7C5FF00F00FF8FFF76BFE70472D
:10241C00C824000800000020640000206400002094
:10242C00F0010020FEE7000070B500250C4E0D4CAD
:10243C00A41BA410A54209D100F01AF800250A4EDD
:10244C000A4CA41BA410A54205D170BD56F825302A
:10245C0098470135EEE756F8253098470135F2E7F5
:10246C00C0240008C0240008C0240008C4240008AC
:10247C00F8B500BFF8BC08BC9E467047F8B500BF65
:08248C00F8BC08BC9E46704735
:1024940002030405060708090A0B0C0D0E0F1010A1
:1024A400010200000000000000000000010203041B
:0C24B400060708090000000001020304F4
:0424C00031010008DE
:0424C4000D010008FE
:1024C8000100000010000000340100004601000077
:1024D8005A0100006E010000840100009B01000009
:1024E800B4010000CE010000E9010000060200006E
:1024F8002502000046020000680200008D0200006C
:10250800B4020000DD02000000010208090A1011EF
:10251800120000000304050B0C0D13141500000035
:0425280000A24A04BF
:04000005080023E9E3
:00000001FF
